:040000002EEF00F0EF
:1000080001820E01CAAB0BEF00F00DEF00F00FEF0D
:1000180000F0861ECA9BCAA114EF00F016EF00F08C
:1000280018EF00F0866ACA91CAA31DEF00F01FEF0F
:1000380000F022EF00F0F00E866ECA93CAA527EFF3
:1000480000F029EF00F02CEF00F0AA0E866ECA959A
:08005800019211009CEF07F07A
:100F000000000F01266B196B89688B6AF00E866EE4
:100F1000410ED66E9F0ED56E0E01CA9BC28BF28E0D
:100F2000F28CC289BA81BA93BA95C281C283C28552
:100F300098EF07F02EEF00F001900192000181EF91
:020F400007F0B8
:020000040030CA
:08000000FADFFFFF9FFFFFDFA5
:00000001FF
