:04000000FEEFFFF020
:10FDC400000000000000000000002F0000000007F9
:10FDD40000070000147F147F1400242A7F2A1200D5
:10FDE40023130864620036495522500000050300BD
:10FDF4000000001C224100000041221C00001408E5
:10FE04003E08140008083E0808000000A060000036
:10FE140008080808080000606000000020100804BA
:10FE240002003E5149453E0000427F4000004261CD
:10FE3400514946002141454B31001814127F1000EE
:10FE44002745454539003C4A4949300001710905B7
:10FE54000300364949493600064949291E0000363F
:10FE6400360000000056360000000814224100004D
:10FE7400141414141400004122140800020151093E
:10FE84000600324959513E007C1211127C007F4910
:10FE9400494936003E41414122007F4141221C0034
:10FEA4007F49494941007F09090901003E41494907
:10FEB4007A007F0808087F0000417F41000020404D
:10FEC400413F01007F08142241007F404040400030
:10FED4007F020C027F007F0408107F003E414141F5
:10FEE4003E007F09090906003E4151215E007F0959
:10FEF4001929460046494949310001017F010100A1
:10FF04003F4040403F001F2040201F003F403840FA
:10FF14003F00631408146300070870080700615168
:10FF240049454300007F41410000552A552A5500A8
:10FF34000041417F000004020102040040404040AF
:10FF440040000001020400002054545478007F480B
:10FF540044443800384444442000384444487F0032
:10FF6400385454541800087E0901020018A4A4A4AB
:10FF74007C007F080404780000447D400000408039
:10FF8400847D00007F102844000000417F40000071
:10FF94007C04180478007C08040478003844444441
:10FFA4003800FC242424180018242418FC007C089D
:10FFB40004040800485454542000043F44402000E2
:10FFC4003C4040207C001C2040201C003C40304031
:10FFD4003C004428102844001CA0A0A07C004464D9
:10FFE400544C440000087700000000007F0000002B
:0CFFF40000770800000010081008000052
:020000040001F9
:100000000F01196B266B896A8B6A848A3F0EA5ECF7
:1000100080F0B80EA5EC80F0400EA5EC80F0010E4B
:100020000A6E096A000E90EC80F0092A3F0E0964FE
:100030001CEF80F01EEF80F012EF80F00A50B80F36
:10004000A5EC80F00A2A080E0A6429EF80F02BEF55
:1000500080F011EF80F0B80EA5EC80F00C6A010E74
:100060000B6E0E6A000E0D6E0D50060DF35040091A
:10007000A5EC80F00B500A0DF3500D24170F69EC1E
:1000800080F00D4A0E2A0EBE4FEF80F00E5009E1AF
:100090000A0E0D5CD8A04FEF80F051EF80F034EFE6
:1000A00080F00B50B809A5EC80F00B4A0C2A0CBE6E
:1000B00063EF80F00C5009E1090E0B5CD8A063EFF0
:1000C00080F065EF80F031EF80F065EF80F0FEEFBB
:1000D000FFF0076E010E086E0750060DC50EF324E3
:1000E000036EFD0EF420046E08500326000E042259
:1000F000400E0324056EFF0E0420066E05C0F6FFB9
:1001000006C0F7FF0800F55090EC80F0082A060EB4
:1001100008648DEF80F08FEF80F06CEF80F01200BC
:10012000026E849084928496848400D000D000D0A3
:1001300002C086FFBFEC80F0060E016E300EE82E86
:10014000FED7012EFCD700D01200026E849084925C
:100150008496849400D000D000D002C086FFBFEC0B
:1001600080F0060E016E300EE82EFED7012EFCD771
:1001700000D01200000EF86E000100EF80F08488BD
:0601800000D0849812007B
:04FFFC00BAEF80F0E8
:020000040030CA
:08000000FADFFFFF9FFFFFDFA5
:00000001FF
