:04000000FEEFFFF020
:100F000000000F01196B896A216B8A68010E846EDB
:100F100020EE0AF010EE03F0050EDBCFE3FFE8064B
:100F2000FCE2846A096A0950020DF350030FD96E7E
:100F3000DA6ADF50016E010E026E012AA2EF07F09D
:100F4000D8900236012EA0EF07F00250841209500B
:100F5000020DF350030FD96EDA6ADE2A000EDD228D
:100F60000950020DF350030FD96EDA6ADECF01F09B
:100F7000DDCF02F0070E0116000E02160950020D19
:100F8000F350030FD96EDA6A01C0DEFF02C0DDFF45
:100F9000092A020E0964CFEF07F0D1EF07F093EFB3
:100FA00007F0060E026E130E016EAE0EE82EFED78F
:100FB000012EFCD7022EFAD791EF07F0FEEFFFF0DB
:100FC000E60EF66E0F0EF76E000EF86E00EE0AF0EB
:100FD00010EE06F00900F5CFEEFFE550E150FAE122
:0C0FE000000181EF07F00000010002009A
:020000040001F9
:04FFFC00E0EF07F03B
:020000040020DA
:10000000FFFFFFFFFFFFFFFFFFFFFFFFFFFFFFFF00
:020000040030CA
:0C000000FAFFFFFF9FFFFFDFFFFFFFFF85
:00000001FF
