:04000000FEEFFFF020
:100F000000008468710E156E1A6A000E196E166A5A
:100F100020EE1DF010EE03F00F0EDBCFE3FFE8062E
:100F2000FCE21768186813681468B9EF07F019C075
:100F300001F0040E0126010E026E012AA2EF07F055
:100F4000D8900236012EA0EF07F002508E1400094F
:100F5000D8B4ADEF07F0AFEF07F0B7EF07F019C067
:100F600017F01AC018F0010E166EC7EF07F0194AF5
:100F70001A2A1ABEC5EF07F01A5009E1040E195CCF
:100F8000D8A0C5EF07F0C7EF07F097EF07F01650AE
:100F9000D8B4CDEF07F0CFEF07F01EEF08F01A6AD4
:100FA000000E196E06EF08F00F0E841219C001F042
:100FB000010E026E012ADFEF07F0D8900236012EF3
:100FC000DDEF07F00250FF0A8414846E17C001F0B1
:100FD000040E0126010E026E012AF1EF07F0D890EF
:100FE0000236012EEFEF07F002508E140009D8A44C
:100FF000FCEF07F0FEEF07F004EF08F019C013F064
:101000001AC014F014EF08F0194A1A2A1ABE12EF87
:1010100008F01A5009E1040E195CD8A012EF08F08C
:1010200014EF08F0D4EF07F01350040DF350030F42
:101030001724D96EDA6ADF501FEF08F0155012003E
:10104000016E4BEF08F03F0E866E76EF08F0060E4D
:10105000866E76EF08F05B0E866E76EF08F04F0E28
:10106000866E76EF08F0660E866E76EF08F06D0EEF
:10107000866E76EF08F07D0E866E76EF08F0070E2E
:10108000866E76EF08F07F0E866E76EF08F06F0EB4
:10109000866E76EF08F00150300AD8B423EF08F0DE
:1010A000010AD8B427EF08F0030AD8B42BEF08F0F0
:1010B000010AD8B42FEF08F0070AD8B433EF08F0CC
:1010C000010AD8B437EF08F0030AD8B43BEF08F0B0
:1010D000010AD8B43FEF08F00F0AD8B443EF08F084
:1010E000010AD8B447EF08F076EF08F012000F01BC
:1010F000116B196B216B266B886AF00E896E8A6AF8
:101100008B6A83680F0E846E810E856E866A2D6AE7
:1011100081EC07F01C6E710E1C18D8B492EF08F029
:1011200094EF08F099EF08F01C5020EC08F09AEFCB
:1011300008F0856A1A0E1B6EF80EE82EFED71B2EDD
:10114000FCD700D087EF08F0FEEFFFF0720EF66ECE
:10115000110EF76E000EF86E00EE1DF010EE10F09E
:101160000900F5CFEEFFE550E150FAE1000177EF1D
:1011700008F03134372A323538303336392341429A
:021180004344E6
:020000040001F9
:04FFFC00A6EF08F074
:020000040020DA
:10000000FFFFFFFFFFFFFFFFFFFFFFFFFFFFFFFF00
:020000040030CA
:0C000000FAFFFFFF9FFFFFDFFFFFFFFF85
:00000001FF
