:04000000FEEFFFF020
:100F00000000076A000E066E07BE90EF07F007505C
:100F100009E1040E065CD8A090EF07F092EF07F00D
:100F200094EF07F023EF08F00650020D0150F32470
:100F3000D96EDA6ADECF04F0DDCF05F006C002F02C
:100F4000010E036E022AA7EF07F0D8900336022E97
:100F5000A5EF07F00350836ED6EF07F03F0E866EC5
:100F60000CEF08F0060E866E0CEF08F05B0E866E36
:100F70000CEF08F04F0E866E0CEF08F0660E866ED2
:100F80000CEF08F06D0E866E0CEF08F07D0E866E8D
:100F90000CEF08F0070E866E0CEF08F07F0E866EE1
:100FA0000CEF08F06F0E866E0CEF08F004C002F034
:100FB00005C003F00350000AD8B4E1EF07F00CEFCE
:100FC00008F00250000AD8B4AEEF07F0010AD8B416
:100FD000B2EF07F0030AD8B4B6EF07F0010AD8B4AD
:100FE000BAEF07F0070AD8B4BEEF07F0010AD8B489
:100FF000C2EF07F0030AD8B4C6EF07F0010AD8B46D
:10100000CAEF07F00F0AD8B4CEEF07F0010AD8B440
:10101000D2EF07F00CEF08F0030E026E980EE82EE8
:10102000FED7022EFCD7064A072A07BE21EF08F09A
:10103000075009E1040E065CD8A021EF08F023EF69
:1010400008F094EF07F012008468710E156E1A6AAA
:10105000000E196E166A20EE2AF010EE03F00F0E45
:10106000DBCFE3FFE806FCE2176818681368146832
:101070005CEF08F019C001F0040E0126010E026EAB
:10108000012A45EF08F0D8900236012E43EF08F010
:1010900002508E140009D8B450EF08F052EF08F057
:1010A0005AEF08F019C017F01AC018F0010E166EAA
:1010B0006AEF08F0194A1A2A1ABE68EF08F01A50A7
:1010C00009E1040E195CD8A068EF08F06AEF08F097
:1010D0003AEF08F01650D8B470EF08F072EF08F04D
:1010E000C1EF08F01A6A000E196EA9EF08F00F0E92
:1010F000841219C001F0010E026E012A82EF08F07D
:10110000D8900236012E80EF08F00250FF0A8414B6
:10111000846E17C001F0040E0126010E026E012A32
:1011200094EF08F0D8900236012E92EF08F00250AA
:101130008E140009D8A49FEF08F0A1EF08F0A7EFE4
:1011400008F019C013F01AC014F0B7EF08F0194AEC
:101150001A2A1ABEB5EF08F01A5009E1040E195CFC
:10116000D8A0B5EF08F0B7EF08F077EF08F013500C
:10117000040DF350030F1724D96EDA6ADF50C2EF63
:1011800008F0155012001D6A000E1C6E710E296EBB
:10119000710E266E20EE1EF0070EDE6AE806FDE2F6
:1011A0000F01116B196B216B266B886AF00E896E2B
:1011B0008A6A8B6A83680F0E846E810E856E866ADA
:1011C00024EC08F0296E2F0E2964E9EF08F0EBEF0C
:1011D00008F02BEF09F03A0E2960F1EF08F0F3EF79
:1011E00008F02BEF09F029502618D8B4FAEF08F0D0
:1011F000FCEF08F02BEF09F0286A030E276E27504A
:10120000020DF3CF1BF0FE0E1B261B501E0FD96ED6
:10121000DA6A2750020DF3501E0FE16EE26ADECF4C
:10122000E6FFDDCFE5FF2706D8A0280628BE23EF7E
:1012300009F0285006E12704D8B021EF09F023EF88
:1012400009F0FFEF08F0D00E29241E6E1F6AFF0E72
:101250001F22274A282A29C026F01E0E016E81EC83
:1012600007F0030E1B6E980EE82EFED71B2EFCD740
:10127000E0EF08F0FEEFFFF0AA0EF66E120EF76E2A
:10128000000EF86E00EE2AF010EE10F00900F5CF17
:10129000EEFFE550E150FAE100EE3AF00A0EEE6A98
:1012A000E806FDE10001C3EF08F03134372A32359A
:0A12B00038303336392341424344FD
:020000040001F9
:04FFFC003CEF09F0DD
:020000040020DA
:10000000FFFFFFFFFFFFFFFFFFFFFFFFFFFFFFFF00
:020000040030CA
:0C000000FAFFFFFF9FFFFFDFFFFFFFFF85
:00000001FF
