:04000000FEEFFFF020
:100F000000000F01196B896A846A030EDAEC07F09E
:100F1000030EDAEC07F0030EDAEC07F0020EDAEC5F
:100F200007F0280EDAEC07F0080EDAEC07F0010EF5
:100F3000DAEC07F0060EDAEC07F0280EDAEC07F030
:100F40000E0EDAEC07F0060EDAEC07F0480EF2ECC3
:100F500007F0650EF2EC07F06C0EF2EC07F06C0E89
:100F6000F2EC07F06F0EF2EC07F0400EDAEC07F04F
:100F7000000EF2EC07F00A0EF2EC07F00A0EF2ECAB
:100F800007F0000EF2EC07F0110EF2EC07F00E0E77
:100F9000F2EC07F0000EF2EC07F0000EF2EC07F0B6
:100FA000C00EDAEC07F0000EF2EC07F0D6EF07F017
:100FB000FEEFFFF0026E02380F0B846E849806EC91
:100FC00008F0F00E841602500F0B8412849806EC81
:100FD00008F0060E016E300EE82EFED7012EFCD76B
:100FE00000D01200016E01380F0B846E848806EC6D
:100FF00008F0F00E841601500F0B8412848806EC62
:1010000008F0210EE82EFED700001200848A00D0DE
:0A101000849A1200000181EF07F03E
:020000040001F9
:04FFFC000AEF08F010
:020000040030CA
:08000000FADFFFFF9FFFFFDFA5
:00000001FF
