:04000000FEEFFFF020
:100F000000000F01196B896A216B8A6820EE0AF0D4
:100F100010EE03F0050EDBCFE3FFE806FCE28FA046
:100F200094EF07F096EF07F098EF07F0010E106EC0
:100F30008FA29DEF07F09FEF07F0A0EF07F0106A78
:100F40001050D8B4A6EF07F0A8EF07F08FEF07F026
:100F5000846A096A096A0950020DF350030FD96EB9
:100F6000DA6ADF50016E010E026E012ABAEF07F055
:100F7000D8900236012EB8EF07F0025084120950C3
:100F8000020DF350030FD96EDA6ADE2A000EDD225D
:100F90000950020DF350030FD96EDA6ADECF01F06B
:100FA000DDCF02F0070E0116000E02160950020DE9
:100FB000F350030FD96EDA6A01C0DEFF02C0DDFF15
:100FC000092A020E0964E7EF07F0E9EF07F0ABEF3B
:100FD00007F0D00E016ECA0EE82EFED7012EFCD708
:100FE0008FEF07F0FEEFFFF0100EF66E100EF76EAB
:100FF000000EF86E00EE0AF010EE06F00900F5CFD4
:10100000EEFFE550E150FAE1106A000181EF07F0D0
:06101000000001000200D7
:020000040001F9
:04FFFC00F4EF07F027
:020000040020DA
:10000000FFFFFFFFFFFFFFFFFFFFFFFFFFFFFFFF00
:020000040030CA
:0C000000FAFFFFFF9FFFFFDFFFFFFFFF85
:00000001FF
